{"abi":[{"type":"function","name":"IS_EVEN_PATH","inputs":[],"outputs":[{"name":"","type":"string","internalType":"string"}],"stateMutability":"view"},{"type":"function","name":"VERIFY_AR_PATH","inputs":[],"outputs":[{"name":"","type":"string","internalType":"string"}],"stateMutability":"view"}],"bytecode":{"object":"0x6101f2610039600b82828239805160001a607314602c57634e487b7160e01b600052600060045260246000fd5b30600052607381538281f3fe73000000000000000000000000000000000000000030146080604052600436106100405760003560e01c80632f25808214610045578063bd4af89414610063575b600080fd5b61004d61006b565b60405161005a91906100a3565b60405180910390f35b61004d610087565b6040518060a00160405280606681526020016100f36066913981565b6040518060a00160405280606481526020016101596064913981565b60006020808352835180602085015260005b818110156100d1578581018301518582016040015282016100b5565b506000604082860101526040601f19601f830116850101925050509291505056fe2f55736572732f6a6f68616e6e2f446f63756d656e74732f436f64652f7a6b702d666f756e6472792f7461726765742f72697363762d67756573742f72697363763332696d2d72697363302d7a6b766d2d656c662f72656c656173652f7665726966792d61722f55736572732f6a6f68616e6e2f446f63756d656e74732f436f64652f7a6b702d666f756e6472792f7461726765742f72697363762d67756573742f72697363763332696d2d72697363302d7a6b766d2d656c662f72656c656173652f69732d6576656ea2646970667358221220aca0559a2c8103f671adc8e597a44a5b8526f9b9817bd6fdaac1b63d2e7865b664736f6c63430008190033","linkReferences":{}},"methodIdentifiers":{"IS_EVEN_PATH()":"bd4af894","VERIFY_AR_PATH()":"2f258082"},"id":38}