{"abi":[{"type":"function","name":"toHexString","inputs":[{"name":"input","type":"bytes","internalType":"bytes"}],"outputs":[{"name":"","type":"string","internalType":"string"}],"stateMutability":"pure"}],"bytecode":{"object":"0x610431610039600b82828239805160001a607314602c57634e487b7160e01b600052600060045260246000fd5b30600052607381538281f3fe73000000000000000000000000000000000000000030146080604052600436106100355760003560e01c8063c93727931461003a575b600080fd5b61004d610048366004610251565b610063565b60405161005a9190610302565b60405180910390f35b606060016100746002600019610367565b61007e9190610389565b82511061008a57600080fd5b81516f181899199a1a9b1b9c1cb0b131b232b360811b906000906100af9060026103a2565b6100ba9060026103b9565b67ffffffffffffffff8111156100d2576100d261023b565b6040519080825280601f01601f1916602001820160405280156100fc576020820181803683370190505b509050600360fc1b81600081518110610117576101176103cc565b60200101906001600160f81b031916908160001a905350600f60fb1b81600181518110610146576101466103cc565b60200101906001600160f81b031916908160001a905350835160029060005b81811015610230576000878281518110610181576101816103cc565b016020015160f881901c9150869060fc1c601081106101a2576101a26103cc565b1a60f81b85856101b1816103e2565b9650815181106101c3576101c36103cc565b60200101906001600160f81b031916908160001a9053508581600f16601081106101ef576101ef6103cc565b1a60f81b85856101fe816103e2565b965081518110610210576102106103cc565b60200101906001600160f81b031916908160001a90535050600101610165565b509195945050505050565b634e487b7160e01b600052604160045260246000fd5b60006020828403121561026357600080fd5b813567ffffffffffffffff8082111561027b57600080fd5b818401915084601f83011261028f57600080fd5b8135818111156102a1576102a161023b565b604051601f8201601f19908116603f011681019083821181831017156102c9576102c961023b565b816040528281528760208487010111156102e257600080fd5b826020860160208301376000928101602001929092525095945050505050565b60006020808352835180602085015260005b8181101561033057858101830151858201604001528201610314565b506000604082860101526040601f19601f8301168501019250505092915050565b634e487b7160e01b600052601160045260246000fd5b60008261038457634e487b7160e01b600052601260045260246000fd5b500490565b8181038181111561039c5761039c610351565b92915050565b808202811582820484141761039c5761039c610351565b8082018082111561039c5761039c610351565b634e487b7160e01b600052603260045260246000fd5b6000600182016103f4576103f4610351565b506001019056fea264697066735822122069b9aeeccc6a88d2a5816acb82ecd7ebd3d3e4e578db2b5bad0692748b8adc0b64736f6c63430008190033","linkReferences":{}},"methodIdentifiers":{"toHexString(bytes)":"c9372793"},"gasEstimates":{"creation":{"codeDepositCost":"214600","executionCost":"288","totalCost":"214888"},"external":{"toHexString(bytes)":"infinite"},"internal":{}},"id":35}