{
    "abi": [
        {
            "type": "constructor",
            "inputs": [
                {
                    "name": "_verifier",
                    "type": "address",
                    "internalType": "contract IRiscZeroVerifier"
                }
            ],
            "stateMutability": "nonpayable"
        },
        {
            "type": "function",
            "name": "authorizeAddress",
            "inputs": [
                {
                    "name": "_address",
                    "type": "address",
                    "internalType": "address"
                }
            ],
            "outputs": [],
            "stateMutability": "nonpayable"
        },
        {
            "type": "function",
            "name": "deauthorizeAddress",
            "inputs": [
                {
                    "name": "_address",
                    "type": "address",
                    "internalType": "address"
                }
            ],
            "outputs": [],
            "stateMutability": "nonpayable"
        },
        {
            "type": "function",
            "name": "devices",
            "inputs": [
                {
                    "name": "",
                    "type": "address",
                    "internalType": "address"
                }
            ],
            "outputs": [
                {
                    "name": "authorized",
                    "type": "bool",
                    "internalType": "bool"
                },
                {
                    "name": "public_ip",
                    "type": "string",
                    "internalType": "string"
                },
                {
                    "name": "msg_broker_ip",
                    "type": "string",
                    "internalType": "string"
                },
                {
                    "name": "public_key",
                    "type": "bytes",
                    "internalType": "bytes"
                }
            ],
            "stateMutability": "view"
        },
        {
            "type": "function",
            "name": "getDevice",
            "inputs": [
                {
                    "name": "_address",
                    "type": "address",
                    "internalType": "address"
                }
            ],
            "outputs": [
                {
                    "name": "",
                    "type": "bool",
                    "internalType": "bool"
                },
                {
                    "name": "",
                    "type": "string",
                    "internalType": "string"
                },
                {
                    "name": "",
                    "type": "string",
                    "internalType": "string"
                },
                {
                    "name": "",
                    "type": "bytes",
                    "internalType": "bytes"
                }
            ],
            "stateMutability": "view"
        },
        {
            "type": "function",
            "name": "imageId",
            "inputs": [],
            "outputs": [
                {
                    "name": "",
                    "type": "bytes32",
                    "internalType": "bytes32"
                }
            ],
            "stateMutability": "view"
        },
        {
            "type": "function",
            "name": "isAuthorized",
            "inputs": [
                {
                    "name": "_address",
                    "type": "address",
                    "internalType": "address"
                }
            ],
            "outputs": [
                {
                    "name": "",
                    "type": "bool",
                    "internalType": "bool"
                }
            ],
            "stateMutability": "view"
        },
        {
            "type": "function",
            "name": "number",
            "inputs": [],
            "outputs": [
                {
                    "name": "",
                    "type": "uint256",
                    "internalType": "uint256"
                }
            ],
            "stateMutability": "view"
        },
        {
            "type": "function",
            "name": "registerDevice",
            "inputs": [
                {
                    "name": "x",
                    "type": "uint256",
                    "internalType": "uint256"
                },
                {
                    "name": "seal",
                    "type": "bytes",
                    "internalType": "bytes"
                },
                {
                    "name": "_address",
                    "type": "address",
                    "internalType": "address"
                },
                {
                    "name": "_public_ip",
                    "type": "string",
                    "internalType": "string"
                },
                {
                    "name": "_msg_broker_ip",
                    "type": "string",
                    "internalType": "string"
                },
                {
                    "name": "_public_key",
                    "type": "bytes",
                    "internalType": "bytes"
                }
            ],
            "outputs": [],
            "stateMutability": "nonpayable"
        },
        {
            "type": "function",
            "name": "registerDeviceWithoutProof",
            "inputs": [
                {
                    "name": "_address",
                    "type": "address",
                    "internalType": "address"
                },
                {
                    "name": "_public_ip",
                    "type": "string",
                    "internalType": "string"
                },
                {
                    "name": "_msg_broker_ip",
                    "type": "string",
                    "internalType": "string"
                },
                {
                    "name": "_public_key",
                    "type": "bytes",
                    "internalType": "bytes"
                }
            ],
            "outputs": [],
            "stateMutability": "nonpayable"
        },
        {
            "type": "function",
            "name": "runProof",
            "inputs": [
                {
                    "name": "seal",
                    "type": "bytes",
                    "internalType": "bytes"
                },
                {
                    "name": "x",
                    "type": "uint256",
                    "internalType": "uint256"
                }
            ],
            "outputs": [],
            "stateMutability": "nonpayable"
        },
        {
            "type": "function",
            "name": "set",
            "inputs": [
                {
                    "name": "x",
                    "type": "uint256",
                    "internalType": "uint256"
                },
                {
                    "name": "seal",
                    "type": "bytes",
                    "internalType": "bytes"
                }
            ],
            "outputs": [],
            "stateMutability": "nonpayable"
        },
        {
            "type": "function",
            "name": "verifier",
            "inputs": [],
            "outputs": [
                {
                    "name": "",
                    "type": "address",
                    "internalType": "contract IRiscZeroVerifier"
                }
            ],
            "stateMutability": "view"
        }
    ],
    "bytecode": {
        "object": "0x60a060405234801561001057600080fd5b506040516112ec3803806112ec83398101604081905261002f916100f0565b6001600160a01b038116608090815260408051918201815260018083528151808301835260078152660746573745f69760cc1b6020808301919091528085019182528351808201855260008082528686019190915284518083018652818152606087015233815290819052929092208351815460ff19169015151781559151908201906100bc90826101c1565b50604082015160028201906100d190826101c1565b50606082015160038201906100e690826101c1565b5090505050610280565b60006020828403121561010257600080fd5b81516001600160a01b038116811461011957600080fd5b9392505050565b634e487b7160e01b600052604160045260246000fd5b600181811c9082168061014a57607f821691505b60208210810361016a57634e487b7160e01b600052602260045260246000fd5b50919050565b601f8211156101bc576000816000526020600020601f850160051c810160208610156101995750805b601f850160051c820191505b818110156101b8578281556001016101a5565b5050505b505050565b81516001600160401b038111156101da576101da610120565b6101ee816101e88454610136565b84610170565b602080601f831160018114610223576000841561020b5750858301515b600019600386901b1c1916600185901b1785556101b8565b600085815260208120601f198616915b8281101561025257888601518255948401946001909101908401610233565b50858210156102705787850151600019600388901b60f8161c191681555b5050505050600190811b01905550565b60805161103d6102af6000396000818160e9015281816104480152818161055601526106f1015261103d6000f3fe608060405234801561001057600080fd5b50600436106100b35760003560e01c80638b282947116100715780638b28294714610194578063e6e9ed89146101a7578063e7b4cac6146101ba578063ef3f7dd5146101cd578063f73857cc146101e2578063fe9fbb801461021157600080fd5b8062d55318146100b85780632b7ac3f3146100e45780634232407c146101235780634a5db3b514610138578063559d77ed1461016a5780638381f58a1461017d575b600080fd5b6100cb6100c6366004610a7c565b610234565b6040516100db9493929190610aee565b60405180910390f35b61010b7f000000000000000000000000000000000000000000000000000000000000000081565b6040516001600160a01b0390911681526020016100db565b610136610131366004610b83565b610420565b005b610136610146366004610a7c565b6001600160a01b03166000908152602081905260409020805460ff19166001179055565b610136610178366004610c72565b61052e565b61018660015481565b6040519081526020016100db565b6101366101a2366004610d42565b6106c9565b6101366101b5366004610d8e565b6107dc565b6100cb6101c8366004610a7c565b61086a565b610186600080516020610fe883398151915281565b6101366101f0366004610a7c565b6001600160a01b03166000908152602081905260409020805460ff19169055565b61022461021f366004610a7c565b610a2f565b60405190151581526020016100db565b6001600160a01b038116600090815260208190526040812080546001820180546060938493849360ff9091169290916002810191600390910190839061027990610e27565b80601f01602080910402602001604051908101604052809291908181526020018280546102a590610e27565b80156102f25780601f106102c7576101008083540402835291602001916102f2565b820191906000526020600020905b8154815290600101906020018083116102d557829003601f168201915b5050505050925081805461030590610e27565b80601f016020809104026020016040519081016040528092919081815260200182805461033190610e27565b801561037e5780601f106103535761010080835404028352916020019161037e565b820191906000526020600020905b81548152906001019060200180831161036157829003601f168201915b5050505050915080805461039190610e27565b80601f01602080910402602001604051908101604052809291908181526020018280546103bd90610e27565b801561040a5780601f106103df5761010080835404028352916020019161040a565b820191906000526020600020905b8154815290600101906020018083116103ed57829003601f168201915b5050505050905093509350935093509193509193565b60008160405160200161043591815260200190565b60405160208183030381529060405290507f00000000000000000000000000000000000000000000000000000000000000006001600160a01b031663ab750e758585600080516020610fe883398151915260001b6002866040516104999190610e61565b602060405180830381855afa1580156104b6573d6000803e3d6000fd5b5050506040513d601f19601f820116820180604052508101906104d99190610e7d565b6040518563ffffffff1660e01b81526004016104f89493929190610e96565b60006040518083038186803b15801561051057600080fd5b505afa158015610524573d6000803e3d6000fd5b5050505050505050565b60008760405160200161054391815260200190565b60405160208183030381529060405290507f00000000000000000000000000000000000000000000000000000000000000006001600160a01b031663ab750e758888600080516020610fe883398151915260001b6002866040516105a79190610e61565b602060405180830381855afa1580156105c4573d6000803e3d6000fd5b5050506040513d601f19601f820116820180604052508101906105e79190610e7d565b6040518563ffffffff1660e01b81526004016106069493929190610e96565b60006040518083038186803b15801561061e57600080fd5b505afa158015610632573d6000803e3d6000fd5b505060408051608081018252600180825260208083018a81528385018a9052606084018990526001600160a01b038c166000908152918290529390208251815460ff19169015151781559251919450919250908201906106929082610f27565b50604082015160028201906106a79082610f27565b50606082015160038201906106bc9082610f27565b5050505050505050505050565b6000836040516020016106de91815260200190565b60405160208183030381529060405290507f00000000000000000000000000000000000000000000000000000000000000006001600160a01b031663ab750e758484600080516020610fe883398151915260001b6002866040516107429190610e61565b602060405180830381855afa15801561075f573d6000803e3d6000fd5b5050506040513d601f19601f820116820180604052508101906107829190610e7d565b6040518563ffffffff1660e01b81526004016107a19493929190610e96565b60006040518083038186803b1580156107b957600080fd5b505afa1580156107cd573d6000803e3d6000fd5b50505060019490945550505050565b6040805160808101825260018082526020808301878152838501879052606084018690526001600160a01b0389166000908152918290529390208251815460ff19169015151781559251919291908201906108379082610f27565b506040820151600282019061084c9082610f27565b50606082015160038201906108619082610f27565b50505050505050565b6000602081905290815260409020805460018201805460ff909216929161089090610e27565b80601f01602080910402602001604051908101604052809291908181526020018280546108bc90610e27565b80156109095780601f106108de57610100808354040283529160200191610909565b820191906000526020600020905b8154815290600101906020018083116108ec57829003601f168201915b50505050509080600201805461091e90610e27565b80601f016020809104026020016040519081016040528092919081815260200182805461094a90610e27565b80156109975780601f1061096c57610100808354040283529160200191610997565b820191906000526020600020905b81548152906001019060200180831161097a57829003601f168201915b5050505050908060030180546109ac90610e27565b80601f01602080910402602001604051908101604052809291908181526020018280546109d890610e27565b8015610a255780601f106109fa57610100808354040283529160200191610a25565b820191906000526020600020905b815481529060010190602001808311610a0857829003601f168201915b5050505050905084565b6001600160a01b03811660009081526020819052604081205460ff1615610a5857506001919050565b506000919050565b919050565b80356001600160a01b0381168114610a6057600080fd5b600060208284031215610a8e57600080fd5b610a9782610a65565b9392505050565b60005b83811015610ab9578181015183820152602001610aa1565b50506000910152565b60008151808452610ada816020860160208601610a9e565b601f01601f19169290920160200192915050565b8415158152608060208201526000610b096080830186610ac2565b8281036040840152610b1b8186610ac2565b90508281036060840152610b2f8185610ac2565b979650505050505050565b60008083601f840112610b4c57600080fd5b50813567ffffffffffffffff811115610b6457600080fd5b602083019150836020828501011115610b7c57600080fd5b9250929050565b600080600060408486031215610b9857600080fd5b833567ffffffffffffffff811115610baf57600080fd5b610bbb86828701610b3a565b909790965060209590950135949350505050565b634e487b7160e01b600052604160045260246000fd5b600082601f830112610bf657600080fd5b813567ffffffffffffffff80821115610c1157610c11610bcf565b604051601f8301601f19908116603f01168101908282118183101715610c3957610c39610bcf565b81604052838152866020858801011115610c5257600080fd5b836020870160208301376000602085830101528094505050505092915050565b600080600080600080600060c0888a031215610c8d57600080fd5b87359650602088013567ffffffffffffffff80821115610cac57600080fd5b610cb88b838c01610b3a565b9098509650869150610ccc60408b01610a65565b955060608a0135915080821115610ce257600080fd5b610cee8b838c01610be5565b945060808a0135915080821115610d0457600080fd5b610d108b838c01610be5565b935060a08a0135915080821115610d2657600080fd5b50610d338a828b01610be5565b91505092959891949750929550565b600080600060408486031215610d5757600080fd5b83359250602084013567ffffffffffffffff811115610d7557600080fd5b610d8186828701610b3a565b9497909650939450505050565b60008060008060808587031215610da457600080fd5b610dad85610a65565b9350602085013567ffffffffffffffff80821115610dca57600080fd5b610dd688838901610be5565b94506040870135915080821115610dec57600080fd5b610df888838901610be5565b93506060870135915080821115610e0e57600080fd5b50610e1b87828801610be5565b91505092959194509250565b600181811c90821680610e3b57607f821691505b602082108103610e5b57634e487b7160e01b600052602260045260246000fd5b50919050565b60008251610e73818460208701610a9e565b9190910192915050565b600060208284031215610e8f57600080fd5b5051919050565b606081528360608201528385608083013760006080858301015260006080601f19601f870116830101905083602083015282604083015295945050505050565b601f821115610f22576000816000526020600020601f850160051c81016020861015610eff5750805b601f850160051c820191505b81811015610f1e57828155600101610f0b565b5050505b505050565b815167ffffffffffffffff811115610f4157610f41610bcf565b610f5581610f4f8454610e27565b84610ed6565b602080601f831160018114610f8a5760008415610f725750858301515b600019600386901b1c1916600185901b178555610f1e565b600085815260208120601f198616915b82811015610fb957888601518255948401946001909101908401610f9a565b5085821015610fd75787850151600019600388901b60f8161c191681555b5050505050600190811b0190555056fefde0c2c4cf767ead252ca351e26f11d486a6b3865e04e9e0a8fd55f0a2aee9f6a26469706673582212205297b61de3c4dd263916991fb09dc4c6a0244a36aca658bd377c9cd3c889c46164736f6c63430008190033",
        "linkReferences": {}
    },
    "methodIdentifiers": {
        "authorizeAddress(address)": "4a5db3b5",
        "deauthorizeAddress(address)": "f73857cc",
        "devices(address)": "e7b4cac6",
        "getDevice(address)": "00d55318",
        "imageId()": "ef3f7dd5",
        "isAuthorized(address)": "fe9fbb80",
        "number()": "8381f58a",
        "registerDevice(uint256,bytes,address,string,string,bytes)": "559d77ed",
        "registerDeviceWithoutProof(address,string,string,bytes)": "e6e9ed89",
        "runProof(bytes,uint256)": "4232407c",
        "set(uint256,bytes)": "8b282947",
        "verifier()": "2b7ac3f3"
    },
    "id": 0
}