{"abi":[{"type":"function","name":"IS_EVEN_ID","inputs":[],"outputs":[{"name":"","type":"bytes32","internalType":"bytes32"}],"stateMutability":"view"},{"type":"function","name":"VERIFY_AR_ID","inputs":[],"outputs":[{"name":"","type":"bytes32","internalType":"bytes32"}],"stateMutability":"view"}],"bytecode":{"object":"0x60d6610038600b82828239805160001a607314602b57634e487b7160e01b600052600060045260246000fd5b30600052607381538281f3fe7300000000000000000000000000000000000000003014608060405260043610603d5760003560e01c80630bde058914604257806387bbf96714607a575b600080fd5b60687ffde0c2c4cf767ead252ca351e26f11d486a6b3865e04e9e0a8fd55f0a2aee9f681565b60405190815260200160405180910390f35b60687feca3d642bcc58d261c1846f619b3a55687f206ac0ad2cb25d73d577e7b7dd2168156fea26469706673582212203f7eb77774c3ce87b324ba31b73cc49f4a3721aa0b1bc25eb7cc210bc79dc6ed64736f6c63430008190033","linkReferences":{}},"methodIdentifiers":{"IS_EVEN_ID()":"87bbf967","VERIFY_AR_ID()":"0bde0589"},"id":2}