{"abi":[{"type":"constructor","inputs":[{"name":"_verifier","type":"address","internalType":"contract IRiscZeroVerifier"},{"name":"guardian","type":"address","internalType":"address"}],"stateMutability":"nonpayable"},{"type":"function","name":"acceptOwnership","inputs":[],"outputs":[],"stateMutability":"nonpayable"},{"type":"function","name":"estop","inputs":[{"name":"receipt","type":"tuple","internalType":"struct Receipt","components":[{"name":"seal","type":"bytes","internalType":"bytes"},{"name":"claimDigest","type":"bytes32","internalType":"bytes32"}]}],"outputs":[],"stateMutability":"nonpayable"},{"type":"function","name":"estop","inputs":[],"outputs":[],"stateMutability":"nonpayable"},{"type":"function","name":"owner","inputs":[],"outputs":[{"name":"","type":"address","internalType":"address"}],"stateMutability":"view"},{"type":"function","name":"paused","inputs":[],"outputs":[{"name":"","type":"bool","internalType":"bool"}],"stateMutability":"view"},{"type":"function","name":"pendingOwner","inputs":[],"outputs":[{"name":"","type":"address","internalType":"address"}],"stateMutability":"view"},{"type":"function","name":"renounceOwnership","inputs":[],"outputs":[],"stateMutability":"nonpayable"},{"type":"function","name":"transferOwnership","inputs":[{"name":"newOwner","type":"address","internalType":"address"}],"outputs":[],"stateMutability":"nonpayable"},{"type":"function","name":"verify","inputs":[{"name":"seal","type":"bytes","internalType":"bytes"},{"name":"imageId","type":"bytes32","internalType":"bytes32"},{"name":"journalDigest","type":"bytes32","internalType":"bytes32"}],"outputs":[],"stateMutability":"view"},{"type":"function","name":"verifyIntegrity","inputs":[{"name":"receipt","type":"tuple","internalType":"struct Receipt","components":[{"name":"seal","type":"bytes","internalType":"bytes"},{"name":"claimDigest","type":"bytes32","internalType":"bytes32"}]}],"outputs":[],"stateMutability":"view"},{"type":"event","name":"OwnershipTransferStarted","inputs":[{"name":"previousOwner","type":"address","indexed":true,"internalType":"address"},{"name":"newOwner","type":"address","indexed":true,"internalType":"address"}],"anonymous":false},{"type":"event","name":"OwnershipTransferred","inputs":[{"name":"previousOwner","type":"address","indexed":true,"internalType":"address"},{"name":"newOwner","type":"address","indexed":true,"internalType":"address"}],"anonymous":false},{"type":"event","name":"Paused","inputs":[{"name":"account","type":"address","indexed":false,"internalType":"address"}],"anonymous":false},{"type":"event","name":"Unpaused","inputs":[{"name":"account","type":"address","indexed":false,"internalType":"address"}],"anonymous":false},{"type":"error","name":"EnforcedPause","inputs":[]},{"type":"error","name":"ExpectedPause","inputs":[]},{"type":"error","name":"InvalidProofOfExploit","inputs":[]},{"type":"error","name":"OwnableInvalidOwner","inputs":[{"name":"owner","type":"address","internalType":"address"}]},{"type":"error","name":"OwnableUnauthorizedAccount","inputs":[{"name":"account","type":"address","internalType":"address"}]}],"bytecode":{"object":"0x60a060405234801561001057600080fd5b506040516107f13803806107f183398101604081905261002f91610108565b806001600160a01b03811661005e57604051631e4fbdf760e01b81526000600482015260240160405180910390fd5b61006781610087565b50506001805460ff60a01b191690556001600160a01b0316608052610142565b600180546001600160a01b03191690556100a0816100a3565b50565b600080546001600160a01b038381166001600160a01b0319831681178455604051919092169283917f8be0079c531659141344cd1fd0a4f28419497f9722a3daafe3b4186f6b6457e09190a35050565b6001600160a01b03811681146100a057600080fd5b6000806040838503121561011b57600080fd5b8251610126816100f3565b6020840151909250610137816100f3565b809150509250929050565b60805161068d610164600039600081816101800152610298015261068d6000f3fe608060405234801561001057600080fd5b506004361061009e5760003560e01c806394142cc61161006657806394142cc61461010f578063ab750e7514610122578063e30c397814610135578063e5caa16a14610146578063f2fde38b1461014e57600080fd5b80631599ead5146100a35780635c975abb146100b8578063715018a6146100da57806379ba5097146100e25780638da5cb5b146100ea575b600080fd5b6100b66100b13660046104ab565b610161565b005b600154600160a01b900460ff1660405190151581526020015b60405180910390f35b6100b66101e8565b6100b66101fc565b6000546001600160a01b03165b6040516001600160a01b0390911681526020016100d1565b6100b661011d3660046104ab565b610245565b6100b66101303660046104ed565b610279565b6001546001600160a01b03166100f7565b6100b6610309565b6100b661015c36600461056c565b610319565b61016961038a565b604051631599ead560e01b81526001600160a01b037f00000000000000000000000000000000000000000000000000000000000000001690631599ead5906101b59084906004016105be565b60006040518083038186803b1580156101cd57600080fd5b505afa1580156101e1573d6000803e3d6000fd5b5050505050565b6101f06103b5565b6101fa60006103e2565b565b60015433906001600160a01b031681146102395760405163118cdaa760e01b81526001600160a01b03821660048201526024015b60405180910390fd5b610242816103e2565b50565b60208101351561026857604051632004afd160e01b815260040160405180910390fd5b61027181610161565b6102426103fb565b61028161038a565b60405163ab750e7560e01b81526001600160a01b037f0000000000000000000000000000000000000000000000000000000000000000169063ab750e75906102d3908790879087908790600401610630565b60006040518083038186803b1580156102eb57600080fd5b505afa1580156102ff573d6000803e3d6000fd5b5050505050505050565b6103116103b5565b6101fa6103fb565b6103216103b5565b600180546001600160a01b0383166001600160a01b031990911681179091556103526000546001600160a01b031690565b6001600160a01b03167f38d16b8cac22d99fc7c124b9cd0de2d3fa1faef420bfe791d8c362d765e2270060405160405180910390a350565b600154600160a01b900460ff16156101fa5760405163d93c066560e01b815260040160405180910390fd5b6000546001600160a01b031633146101fa5760405163118cdaa760e01b8152336004820152602401610230565b600180546001600160a01b03191690556102428161045b565b61040361038a565b6001805460ff60a01b1916600160a01b1790557f62e78cea01bee320cd4e420270b5ea74000d11b0c9f74754ebdbfc544b05a25861043e3390565b6040516001600160a01b03909116815260200160405180910390a1565b600080546001600160a01b038381166001600160a01b0319831681178455604051919092169283917f8be0079c531659141344cd1fd0a4f28419497f9722a3daafe3b4186f6b6457e09190a35050565b6000602082840312156104bd57600080fd5b813567ffffffffffffffff8111156104d457600080fd5b8201604081850312156104e657600080fd5b9392505050565b6000806000806060858703121561050357600080fd5b843567ffffffffffffffff8082111561051b57600080fd5b818701915087601f83011261052f57600080fd5b81358181111561053e57600080fd5b88602082850101111561055057600080fd5b6020928301999098509187013596604001359550909350505050565b60006020828403121561057e57600080fd5b81356001600160a01b03811681146104e657600080fd5b81835281816020850137506000828201602090810191909152601f909101601f19169091010190565b6020815260008235601e198436030181126105d857600080fd5b830160208101903567ffffffffffffffff8111156105f557600080fd5b80360382131561060457600080fd5b60406020850152610619606085018284610595565b915050602084013560408401528091505092915050565b606081526000610644606083018688610595565b602083019490945250604001529291505056fea264697066735822122073c5c12ad417d7715bc2d116766043466ba7e476cda7c61e19e8778caec6e1c664736f6c63430008190033","linkReferences":{}},"methodIdentifiers":{"acceptOwnership()":"79ba5097","estop((bytes,bytes32))":"94142cc6","estop()":"e5caa16a","owner()":"8da5cb5b","paused()":"5c975abb","pendingOwner()":"e30c3978","renounceOwnership()":"715018a6","transferOwnership(address)":"f2fde38b","verify(bytes,bytes32,bytes32)":"ab750e75","verifyIntegrity((bytes,bytes32))":"1599ead5"},"id":55}