{"abi":[{"type":"constructor","inputs":[{"name":"_verifier","type":"address","internalType":"contract IRiscZeroVerifier"}],"stateMutability":"nonpayable"},{"type":"function","name":"get","inputs":[],"outputs":[{"name":"","type":"uint256","internalType":"uint256"}],"stateMutability":"view"},{"type":"function","name":"imageId","inputs":[],"outputs":[{"name":"","type":"bytes32","internalType":"bytes32"}],"stateMutability":"view"},{"type":"function","name":"number","inputs":[],"outputs":[{"name":"","type":"uint256","internalType":"uint256"}],"stateMutability":"view"},{"type":"function","name":"set","inputs":[{"name":"x","type":"uint256","internalType":"uint256"},{"name":"seal","type":"bytes","internalType":"bytes"}],"outputs":[],"stateMutability":"nonpayable"},{"type":"function","name":"verifier","inputs":[],"outputs":[{"name":"","type":"address","internalType":"contract IRiscZeroVerifier"}],"stateMutability":"view"}],"bytecode":{"object":"0x60a0604052348015600f57600080fd5b506040516103e53803806103e5833981016040819052602c916040565b6001600160a01b031660805260008055606e565b600060208284031215605157600080fd5b81516001600160a01b0381168114606757600080fd5b9392505050565b60805161035661008f600039600081816061015261011f01526103566000f3fe608060405234801561001057600080fd5b50600436106100575760003560e01c80632b7ac3f31461005c5780636d4ce63c146100a05780638381f58a146100b25780638b282947146100bb578063ef3f7dd5146100d0575b600080fd5b6100837f000000000000000000000000000000000000000000000000000000000000000081565b6040516001600160a01b0390911681526020015b60405180910390f35b6000545b604051908152602001610097565b6100a460005481565b6100ce6100c936600461021c565b6100f7565b005b6100a47feca3d642bcc58d261c1846f619b3a55687f206ac0ad2cb25d73d577e7b7dd21681565b60008360405160200161010c91815260200190565b60405160208183030381529060405290507f00000000000000000000000000000000000000000000000000000000000000006001600160a01b031663ab750e7584847feca3d642bcc58d261c1846f619b3a55687f206ac0ad2cb25d73d577e7b7dd21660001b6002866040516101829190610298565b602060405180830381855afa15801561019f573d6000803e3d6000fd5b5050506040513d601f19601f820116820180604052508101906101c291906102c7565b6040518563ffffffff1660e01b81526004016101e194939291906102e0565b60006040518083038186803b1580156101f957600080fd5b505afa15801561020d573d6000803e3d6000fd5b50505060009490945550505050565b60008060006040848603121561023157600080fd5b83359250602084013567ffffffffffffffff8082111561025057600080fd5b818601915086601f83011261026457600080fd5b81358181111561027357600080fd5b87602082850101111561028557600080fd5b6020830194508093505050509250925092565b6000825160005b818110156102b9576020818601810151858301520161029f565b506000920191825250919050565b6000602082840312156102d957600080fd5b5051919050565b606081528360608201528385608083013760006080858301015260006080601f19601f87011683010190508360208301528260408301529594505050505056fea264697066735822122044ba5227319e8506c5291d20d27c067fbb6600a7339ae5990281d46261b25e9464736f6c63430008190033","linkReferences":{}},"methodIdentifiers":{"get()":"6d4ce63c","imageId()":"ef3f7dd5","number()":"8381f58a","set(uint256,bytes)":"8b282947","verifier()":"2b7ac3f3"},"id":1}