{"abi":[{"type":"function","name":"IMAGE_ID","inputs":[],"outputs":[{"name":"","type":"bytes32","internalType":"bytes32"}],"stateMutability":"view"},{"type":"function","name":"JOURNAL","inputs":[],"outputs":[{"name":"","type":"bytes","internalType":"bytes"}],"stateMutability":"view"},{"type":"function","name":"SEAL","inputs":[],"outputs":[{"name":"","type":"bytes","internalType":"bytes"}],"stateMutability":"view"}],"bytecode":{"object":"0x61027a610039600b82828239805160001a607314602c57634e487b7160e01b600052600060045260246000fd5b30600052607381538281f3fe730000000000000000000000000000000000000000301460806040526004361061004b5760003560e01c8063081c390914610050578063549206ed1461009a578063f9a21dce146100cf575b600080fd5b610084604051806040016040528060158152602001741a9d5cdd0818481cda5b5c1b19481c9958d95a5c1d605a1b81525081565b60405161009191906100f1565b60405180910390f35b6100c17f0e3b8f40fe72d3e43d0c29df23fd4b02607c9ae59bc166fb306fa2aa2ac7d64081565b604051908152602001610091565b6100846040518061014001604052806101048152602001610141610104913981565b60006020808352835180602085015260005b8181101561011f57858101830151858201604001528201610103565b506000604082860101526040601f19601f830116850101925050509291505056fe310fe598039b6a4c59c576a9afc538bef01bd396cdbc979fe912c4d9c8f4f665c39b8a8f103328a969252a25e1aa69352f7d74b0093476c09e1cc4785201459259341fa220774a7b3e64067d37fa72251fd4766292dbebdea69b55e0790df3fedac65a601cca6fa7ec7d89b5711d8cf0533c1e44dc954de20dd1a7449544a11bd3dd6a453003d2b7dcfae42c88d3b38aa8ce84fc4e022ed91fa1f3ee06ae4b1eacf3033b2d4927494fc2a4dc44b18fac3084fd91d7e161e0e526a033e161f8d69de3babb163578f5916b554bd4a45531913d8c472f03744175bc1000de45110b7cef06d31257b005c5ca02af4704976f6fad82bf6e9e52ea208c7a4c535dc029db456589a26469706673582212201b80d83c6670dab396b6fd5c72b51269eedfd412f0a2bcbcef6ea33cbaaf6c4d64736f6c63430008190033","linkReferences":{}},"methodIdentifiers":{"IMAGE_ID()":"549206ed","JOURNAL()":"081c3909","SEAL()":"f9a21dce"},"id":69}