{"abi":[{"type":"constructor","inputs":[{"name":"selector","type":"bytes4","internalType":"bytes4"}],"stateMutability":"nonpayable"},{"type":"function","name":"SELECTOR","inputs":[],"outputs":[{"name":"","type":"bytes4","internalType":"bytes4"}],"stateMutability":"view"},{"type":"function","name":"mockProve","inputs":[{"name":"claimDigest","type":"bytes32","internalType":"bytes32"}],"outputs":[{"name":"","type":"tuple","internalType":"struct Receipt","components":[{"name":"seal","type":"bytes","internalType":"bytes"},{"name":"claimDigest","type":"bytes32","internalType":"bytes32"}]}],"stateMutability":"view"},{"type":"function","name":"mockProve","inputs":[{"name":"imageId","type":"bytes32","internalType":"bytes32"},{"name":"journalDigest","type":"bytes32","internalType":"bytes32"}],"outputs":[{"name":"","type":"tuple","internalType":"struct Receipt","components":[{"name":"seal","type":"bytes","internalType":"bytes"},{"name":"claimDigest","type":"bytes32","internalType":"bytes32"}]}],"stateMutability":"view"},{"type":"function","name":"verify","inputs":[{"name":"seal","type":"bytes","internalType":"bytes"},{"name":"imageId","type":"bytes32","internalType":"bytes32"},{"name":"journalDigest","type":"bytes32","internalType":"bytes32"}],"outputs":[],"stateMutability":"view"},{"type":"function","name":"verifyIntegrity","inputs":[{"name":"receipt","type":"tuple","internalType":"struct Receipt","components":[{"name":"seal","type":"bytes","internalType":"bytes"},{"name":"claimDigest","type":"bytes32","internalType":"bytes32"}]}],"outputs":[],"stateMutability":"view"},{"type":"error","name":"SelectorMismatch","inputs":[{"name":"received","type":"bytes4","internalType":"bytes4"},{"name":"expected","type":"bytes4","internalType":"bytes4"}]},{"type":"error","name":"VerificationFailed","inputs":[]}],"bytecode":{"object":"0x60a0604052348015600f57600080fd5b506040516109d73803806109d7833981016040819052602c91603d565b6001600160e01b031916608052606c565b600060208284031215604e57600080fd5b81516001600160e01b031981168114606557600080fd5b9392505050565b60805161093d61009a6000396000818160610152818160ee015281816101fa015261025f015261093d6000f3fe608060405234801561001057600080fd5b50600436106100575760003560e01c8063053c238d1461005c5780631599ead5146100a15780633a115bb1146100b657806366cf0e4b14610149578063ab750e751461015c575b600080fd5b6100837f000000000000000000000000000000000000000000000000000000000000000081565b6040516001600160e01b031990911681526020015b60405180910390f35b6100b46100af3660046106a5565b61016f565b005b61013c6100c43660046106e0565b604080518082019091526060815260006020820152604080518082019091526001600160e01b03197f000000000000000000000000000000000000000000000000000000000000000016606082015260648101839052806084810160408051601f198184030181529190528152602001929092525090565b604051610098919061071d565b61013c610157366004610763565b610189565b6100b461016a366004610785565b6101ba565b61018661017c8280610804565b83602001356101d7565b50565b6040805180820190915260608152600060208201526101b36100c46101ae85856102fc565b610463565b9392505050565b6101d184846101cc6101ae86866102fc565b6101d7565b50505050565b6101e5600460008486610852565b6101ee9161087c565b6001600160e01b0319167f00000000000000000000000000000000000000000000000000000000000000006001600160e01b0319161461029257610236600460008486610852565b61023f9161087c565b604051632e2ce35360e21b81526001600160e01b031991821660048201527f0000000000000000000000000000000000000000000000000000000000000000909116602482015260440160405180910390fd5b60408051602081018390520160408051601f1981840301815291905280516020909101206102c38360048187610852565b6040516102d19291906108ac565b6040518091039020146102f75760405163439cc0cd60e01b815260040160405180910390fd5b505050565b610304610660565b6040518060a0016040528084815260200160028060405161033c907072697363302e53797374656d537461746560781b815260110190565b602060405180830381855afa158015610359573d6000803e3d6000fd5b5050506040513d601f19601f8201168201806040525081019061037c91906108bc565b60408051602081019290925260009082018190526060820152600160f81b606482015260660160408051601f19818403018152908290526103bc916108d5565b602060405180830381855afa1580156103d9573d6000803e3d6000fd5b5050506040513d601f19601f820116820180604052508101906103fc91906108bc565b815260200160405180604001604052806000600281111561041f5761041f6108f1565b8152602001600060ff1681525081526020016000801b815260200161045a60405180604001604052808681526020016000801b8152506105c8565b90529392505050565b600060028060405161048d907172697363302e52656365697074436c61696d60701b815260120190565b602060405180830381855afa1580156104aa573d6000803e3d6000fd5b5050506040513d601f19601f820116820180604052508101906104cd91906108bc565b606084015184516020860151608087015160408801515160189060028111156104f8576104f86108f1565b60408a810151602090810151825191820199909952908101969096526060860194909452608085019290925260a084015263ffffffff909116901b60e01b6001600160e01b03191660c082015260f89190911b6001600160f81b03191660c4820152600160fa1b60c882015260ca015b60408051601f1981840301815290829052610582916108d5565b602060405180830381855afa15801561059f573d6000803e3d6000fd5b5050506040513d601f19601f820116820180604052508101906105c291906108bc565b92915050565b60006002806040516105ec906b1c9a5cd8cc0b93dd5d1c1d5d60a21b8152600c0190565b602060405180830381855afa158015610609573d6000803e3d6000fd5b5050506040513d601f19601f8201168201806040525081019061062c91906108bc565b83516020808601516040805192830194909452928101919091526060810191909152600160f91b6080820152608201610568565b6040805160a08101825260008082526020820152908101610691604080518082019091526000808252602082015290565b815260006020820181905260409091015290565b6000602082840312156106b757600080fd5b813567ffffffffffffffff8111156106ce57600080fd5b8201604081850312156101b357600080fd5b6000602082840312156106f257600080fd5b5035919050565b60005b838110156107145781810151838201526020016106fc565b50506000910152565b60208152600082516040602084015280518060608501526107458160808601602085016106f9565b60209490940151604084015250506080601f909201601f1916010190565b6000806040838503121561077657600080fd5b50508035926020909101359150565b6000806000806060858703121561079b57600080fd5b843567ffffffffffffffff808211156107b357600080fd5b818701915087601f8301126107c757600080fd5b8135818111156107d657600080fd5b8860208285010111156107e857600080fd5b6020928301999098509187013596604001359550909350505050565b6000808335601e1984360301811261081b57600080fd5b83018035915067ffffffffffffffff82111561083657600080fd5b60200191503681900382131561084b57600080fd5b9250929050565b6000808585111561086257600080fd5b8386111561086f57600080fd5b5050820193919092039150565b6001600160e01b031981358181169160048510156108a45780818660040360031b1b83161692505b505092915050565b8183823760009101908152919050565b6000602082840312156108ce57600080fd5b5051919050565b600082516108e78184602087016106f9565b9190910192915050565b634e487b7160e01b600052602160045260246000fdfea26469706673582212206c3e5de2e7d56ab44a58e9c404ce9298a0204801bcbcb2454777e467d5e56e4964736f6c63430008190033","linkReferences":{}},"methodIdentifiers":{"SELECTOR()":"053c238d","mockProve(bytes32)":"3a115bb1","mockProve(bytes32,bytes32)":"66cf0e4b","verify(bytes,bytes32,bytes32)":"ab750e75","verifyIntegrity((bytes,bytes32))":"1599ead5"},"gasEstimates":{"creation":{"codeDepositCost":"473000","executionCost":"infinite","totalCost":"infinite"},"external":{"SELECTOR()":"infinite","mockProve(bytes32)":"infinite","mockProve(bytes32,bytes32)":"infinite","verify(bytes,bytes32,bytes32)":"infinite","verifyIntegrity((bytes,bytes32))":"infinite"},"internal":{"_verifyIntegrity(bytes calldata,bytes32)":"infinite"}},"id":34}