{"abi":[{"type":"constructor","inputs":[{"name":"admin","type":"address","internalType":"address"}],"stateMutability":"nonpayable"},{"type":"function","name":"acceptOwnership","inputs":[],"outputs":[],"stateMutability":"nonpayable"},{"type":"function","name":"addVerifier","inputs":[{"name":"selector","type":"bytes4","internalType":"bytes4"},{"name":"verifier","type":"address","internalType":"contract IRiscZeroVerifier"}],"outputs":[],"stateMutability":"nonpayable"},{"type":"function","name":"getVerifier","inputs":[{"name":"selector","type":"bytes4","internalType":"bytes4"}],"outputs":[{"name":"","type":"address","internalType":"contract IRiscZeroVerifier"}],"stateMutability":"view"},{"type":"function","name":"getVerifier","inputs":[{"name":"seal","type":"bytes","internalType":"bytes"}],"outputs":[{"name":"","type":"address","internalType":"contract IRiscZeroVerifier"}],"stateMutability":"view"},{"type":"function","name":"owner","inputs":[],"outputs":[{"name":"","type":"address","internalType":"address"}],"stateMutability":"view"},{"type":"function","name":"pendingOwner","inputs":[],"outputs":[{"name":"","type":"address","internalType":"address"}],"stateMutability":"view"},{"type":"function","name":"removeVerifier","inputs":[{"name":"selector","type":"bytes4","internalType":"bytes4"}],"outputs":[],"stateMutability":"nonpayable"},{"type":"function","name":"renounceOwnership","inputs":[],"outputs":[],"stateMutability":"nonpayable"},{"type":"function","name":"transferOwnership","inputs":[{"name":"newOwner","type":"address","internalType":"address"}],"outputs":[],"stateMutability":"nonpayable"},{"type":"function","name":"verifiers","inputs":[{"name":"","type":"bytes4","internalType":"bytes4"}],"outputs":[{"name":"","type":"address","internalType":"contract IRiscZeroVerifier"}],"stateMutability":"view"},{"type":"function","name":"verify","inputs":[{"name":"seal","type":"bytes","internalType":"bytes"},{"name":"imageId","type":"bytes32","internalType":"bytes32"},{"name":"journalDigest","type":"bytes32","internalType":"bytes32"}],"outputs":[],"stateMutability":"view"},{"type":"function","name":"verifyIntegrity","inputs":[{"name":"receipt","type":"tuple","internalType":"struct Receipt","components":[{"name":"seal","type":"bytes","internalType":"bytes"},{"name":"claimDigest","type":"bytes32","internalType":"bytes32"}]}],"outputs":[],"stateMutability":"view"},{"type":"event","name":"OwnershipTransferStarted","inputs":[{"name":"previousOwner","type":"address","indexed":true,"internalType":"address"},{"name":"newOwner","type":"address","indexed":true,"internalType":"address"}],"anonymous":false},{"type":"event","name":"OwnershipTransferred","inputs":[{"name":"previousOwner","type":"address","indexed":true,"internalType":"address"},{"name":"newOwner","type":"address","indexed":true,"internalType":"address"}],"anonymous":false},{"type":"error","name":"OwnableInvalidOwner","inputs":[{"name":"owner","type":"address","internalType":"address"}]},{"type":"error","name":"OwnableUnauthorizedAccount","inputs":[{"name":"account","type":"address","internalType":"address"}]},{"type":"error","name":"SelectorInUse","inputs":[{"name":"selector","type":"bytes4","internalType":"bytes4"}]},{"type":"error","name":"SelectorRemoved","inputs":[{"name":"selector","type":"bytes4","internalType":"bytes4"}]},{"type":"error","name":"SelectorUnknown","inputs":[{"name":"selector","type":"bytes4","internalType":"bytes4"}]}],"bytecode":{"object":"0x608060405234801561001057600080fd5b50604051610a4d380380610a4d83398101604081905261002f916100da565b806001600160a01b03811661005e57604051631e4fbdf760e01b81526000600482015260240160405180910390fd5b6100678161006e565b505061010a565b600180546001600160a01b03191690556100878161008a565b50565b600080546001600160a01b038381166001600160a01b0319831681178455604051919092169283917f8be0079c531659141344cd1fd0a4f28419497f9722a3daafe3b4186f6b6457e09190a35050565b6000602082840312156100ec57600080fd5b81516001600160a01b038116811461010357600080fd5b9392505050565b610934806101196000396000f3fe608060405234801561001057600080fd5b50600436106100b45760003560e01c8063ab750e7511610071578063ab750e7514610131578063c17e7ba814610144578063d0a6af3014610157578063e30c39781461016a578063f2fde38b1461017b578063fa9381d31461018e57600080fd5b80631599ead5146100b95780633cadf449146100ce578063715018a6146100fd57806379ba5097146101055780638da5cb5b1461010d57806393d237f61461011e575b600080fd5b6100cc6100c73660046105ce565b6101b7565b005b6100e16100dc366004610626565b610222565b6040516001600160a01b03909116815260200160405180910390f35b6100cc6102a1565b6100cc6102b5565b6000546001600160a01b03166100e1565b6100cc61012c366004610626565b6102f9565b6100cc61013f36600461068a565b61036e565b6100e16101523660046106db565b6103df565b6100cc610165366004610732565b610401565b6001546001600160a01b03166100e1565b6100cc610189366004610769565b6104cc565b6100e161019c366004610626565b6002602052600090815260409020546001600160a01b031681565b6101c46101528280610786565b6001600160a01b0316631599ead5826040518263ffffffff1660e01b81526004016101ef91906107f6565b60006040518083038186803b15801561020757600080fd5b505afa15801561021b573d6000803e3d6000fd5b5050505050565b6001600160e01b031981166000908152600260205260408120546001600160a01b03168061026e578260405163727532a160e11b81526004016102659190610868565b60405180910390fd5b6000196001600160a01b0382160161029b5782604051633780eb1360e21b81526004016102659190610868565b92915050565b6102a961053d565b6102b3600061056a565b565b60015433906001600160a01b031681146102ed5760405163118cdaa760e01b81526001600160a01b0382166004820152602401610265565b6102f68161056a565b50565b61030161053d565b6001600160e01b031981166000908152600260205260409020546001600160a01b0316610343578060405163727532a160e11b81526004016102659190610868565b6001600160e01b031916600090815260026020526040902080546001600160a01b0319166001179055565b61037884846103df565b6001600160a01b031663ab750e75858585856040518563ffffffff1660e01b81526004016103a9949392919061087d565b60006040518083038186803b1580156103c157600080fd5b505afa1580156103d5573d6000803e3d6000fd5b5050505050505050565b60006103fa6103f160048385876108a4565b6100dc916108ce565b9392505050565b61040961053d565b6001600160e01b031982166000908152600260205260409020546001600160a01b03166000190161044f5781604051633780eb1360e21b81526004016102659190610868565b6001600160e01b031982166000908152600260205260409020546001600160a01b03161561049257816040516350a41efb60e01b81526004016102659190610868565b6001600160e01b031991909116600090815260026020526040902080546001600160a01b0319166001600160a01b03909216919091179055565b6104d461053d565b600180546001600160a01b0383166001600160a01b031990911681179091556105056000546001600160a01b031690565b6001600160a01b03167f38d16b8cac22d99fc7c124b9cd0de2d3fa1faef420bfe791d8c362d765e2270060405160405180910390a350565b6000546001600160a01b031633146102b35760405163118cdaa760e01b8152336004820152602401610265565b600180546001600160a01b03191690556102f681600080546001600160a01b038381166001600160a01b0319831681178455604051919092169283917f8be0079c531659141344cd1fd0a4f28419497f9722a3daafe3b4186f6b6457e09190a35050565b6000602082840312156105e057600080fd5b813567ffffffffffffffff8111156105f757600080fd5b8201604081850312156103fa57600080fd5b80356001600160e01b03198116811461062157600080fd5b919050565b60006020828403121561063857600080fd5b6103fa82610609565b60008083601f84011261065357600080fd5b50813567ffffffffffffffff81111561066b57600080fd5b60208301915083602082850101111561068357600080fd5b9250929050565b600080600080606085870312156106a057600080fd5b843567ffffffffffffffff8111156106b757600080fd5b6106c387828801610641565b90989097506020870135966040013595509350505050565b600080602083850312156106ee57600080fd5b823567ffffffffffffffff81111561070557600080fd5b61071185828601610641565b90969095509350505050565b6001600160a01b03811681146102f657600080fd5b6000806040838503121561074557600080fd5b61074e83610609565b9150602083013561075e8161071d565b809150509250929050565b60006020828403121561077b57600080fd5b81356103fa8161071d565b6000808335601e1984360301811261079d57600080fd5b83018035915067ffffffffffffffff8211156107b857600080fd5b60200191503681900382131561068357600080fd5b81835281816020850137506000828201602090810191909152601f909101601f19169091010190565b6020815260008235601e1984360301811261081057600080fd5b830160208101903567ffffffffffffffff81111561082d57600080fd5b80360382131561083c57600080fd5b604060208501526108516060850182846107cd565b915050602084013560408401528091505092915050565b6001600160e01b031991909116815260200190565b6060815260006108916060830186886107cd565b6020830194909452506040015292915050565b600080858511156108b457600080fd5b838611156108c157600080fd5b5050820193919092039150565b6001600160e01b031981358181169160048510156108f65780818660040360031b1b83161692505b50509291505056fea2646970667358221220b14a985cb2c9975f8dd48d2198971d26794193e09f2cca516b98172e568274df64736f6c63430008190033","linkReferences":{}},"methodIdentifiers":{"acceptOwnership()":"79ba5097","addVerifier(bytes4,address)":"d0a6af30","getVerifier(bytes)":"c17e7ba8","getVerifier(bytes4)":"3cadf449","owner()":"8da5cb5b","pendingOwner()":"e30c3978","removeVerifier(bytes4)":"93d237f6","renounceOwnership()":"715018a6","transferOwnership(address)":"f2fde38b","verifiers(bytes4)":"fa9381d3","verify(bytes,bytes32,bytes32)":"ab750e75","verifyIntegrity((bytes,bytes32))":"1599ead5"},"id":56}