{"abi":[{"type":"function","name":"BN254_CONTROL_ID","inputs":[],"outputs":[{"name":"","type":"bytes32","internalType":"bytes32"}],"stateMutability":"view"},{"type":"function","name":"CONTROL_ROOT","inputs":[],"outputs":[{"name":"","type":"bytes32","internalType":"bytes32"}],"stateMutability":"view"}],"bytecode":{"object":"0x60d6610038600b82828239805160001a607314602b57634e487b7160e01b600052600060045260246000fd5b30600052607381538281f3fe7300000000000000000000000000000000000000003014608060405260043610603d5760003560e01c8063258038e2146042578063d3f4ed9114607a575b600080fd5b60687f0eb6febcf06c5df079111be116f79bd8c7e85dc9448776ef9a59aaf2624ab55181565b60405190815260200160405180910390f35b60687fa516a057c9fbf5629106300934d48e0e775d4230e41e503347cad96fcbde7e2e8156fea264697066735822122009d530ea542dfcfa3b585ea343b5af9a6fa86daf2f5178d3103b456aa8a26a8f64736f6c63430008190033","linkReferences":{}},"methodIdentifiers":{"BN254_CONTROL_ID()":"258038e2","CONTROL_ROOT()":"d3f4ed91"},"id":59}